:020000020000FC
:100000000FC318951895189518951895189512C03E
:10001000189511C0189518951895189518956BC0D6
:1000200046C018951895189518951895189518950F
:10003000EBC318950895FFB621600A2D0F71039543
:100040000F93E02E0A2D007E0E29A02E0F910E3167
:100050000CF002C0FFBE18950A2D007EE02E0B2D7D
:100060000770EE0C001FEE1C001FEE1C001F039516
:100070000F93AA240695A7940795A7940795A7948C
:100080000770E02E08EFB022BE280F910C3314F356
:1000900000E00B2D06950695069503950F93000F2E
:1000A000000F000FB02E0F91083108F00027FFB6A7
:1000B00080FC02C0289801C0289A86941A9539F0CD
:1000C0009A94B9F48A90922C14C0C2E1D1E015E15F
:1000D000922C8A90DD23C9F304B50F7C04BD05B3CF
:1000E000076005BB00916E00046000936E002898C5
:1000F0005B9AFFBE1895FFB604B5006304BD00917E
:100100006E000B7F00936E005B98FFBE1895A8955C
:1001100056B150955370D9F3652FA89556B15095A7
:100120005370D9F7089569D3705D605D7F9348D2AD
:100130006F9146D2089580E78E7F8093700061E0D2
:1001400026D266E024D26CE022D260E820D2ECE431
:10015000F9E06591662311F033D2FBCF62E817D244
:100160006D2D6695462F4370605B645667FF04C033
:100170006C596F9373E10BC064361CF46F9374E198
:1001800006C06456603009F440956F9375E1CBDF8B
:100190007F91C9DFBCDF61FD09C06D2D6E7F669563
:1001A0006395660F81E0D822D62ACFCF60E8EFD1E1
:1001B000E6E5F9E06591662311F002D2FBCF64E831
:1001C000E6D16C2D607E7D2D7170660F771F660FF6
:1001D000771F660F771F7F93A6DF9F9198DF61FDE2
:1001E00013C0692F63956D3008F060E0772766953E
:1001F000779566957795669577958FE1C822C72A9A
:100200008EEFD822D62AD2CF60E8C1D1E0E6F9E05D
:100210006591662311F0D4D1FBCF64E8B8D17C2D71
:100220007F7181DF74DF61FD25C06C2D6F71639577
:10023000603228F07C2D707E7160C72EE5CF6F3163
:1002400069F49430B9F39630A9F3993099F39B305F
:1002500089F37C2D707E762BC72ED6CF6E3119F4A4
:10026000923041F3F6CF6D31A1F7923091F74423EC
:1002700081F3E0CF60E88BD1EAE6F9E0659166238F
:1002800011F09ED1FBCF64E882D17B2D787F7695EB
:10029000769576957F9347DF7F9139DF61FD0CC0BE
:1002A0007395783108F070E06B2D6770770F770FDA
:1002B000770F762BB72EDECF60E869D1E4E7F9E05F
:1002C0006591662311F07CD1FBCF64E860D17B2D72
:1002D0006A2D7770607E660F771F661F771F661F17
:1002E000771F7F9320DF7F9112DF61FD15C073952B
:1002F0007C3308F070E0972F88277B2D6A2D787F5C
:100300006770969587959795879597958795792B9B
:10031000682BB72EA62ED0CF61E039D180E781605F
:1003200080937000A89556B15095537011F0EFDE90
:10033000089520FFF7CF2E7F60E829D17B2D787FAD
:10034000769576957695EFDE7B2D6A2D7770607EBB
:10035000660F771F661F771F661F771FE4DE7A2DF3
:100360007F71770FE0DEDECF0895671418F0662DF9
:100370006719089560E4660D67190895A8956714D4
:10038000E9F3A89573947320EF93FF93E72DF0E0C2
:10039000E958FE4F6081FF91EF91671429F4509165
:1003A000F8015D7F5093F801089580E240E5F1E0A7
:1003B000E4E281934A95E9F7206880E08093760132
:1003C0008827809323018093740156E0850F8093E2
:1003D000750180E48093010180E88093040181E04D
:1003E0008093060182E08093090184E080930C01F0
:1003F00088E080930F0140E060E053E08FD0639588
:1004000043954630D8F30895660F10F4206801C074
:100410002F77660F08F420642F7B0895660F70F421
:1004200020628091810081608093810085B5826027
:1004300085BD81E080936E005C9814C02F7D5C9A2E
:1004400080916E00887F80936E0085B5887F85BD22
:1004500080916F00887F80936F0080918100887FFA
:1004600080938100660F10F4206101C02F7E660F1B
:1004700010F428600895277F809170008D7F80930D
:1004800070000895660F10F1660F78F48091760180
:100490008A9587FD86E080937601809123018A9575
:1004A00087FD80E5809323010895809176018395EF
:1004B000863008F080E08093760180912301839557
:1004C000803508F08827809323010895660F18F17E
:1004D000F1E0E1E046E04A956081607C83819481AF
:1004E0008F73862B8083918333964A95A9F7409129
:1004F000750168E013D0409174014395403508F0D0
:1005000044274093740156E0450F403508F04055AC
:1005100040937501089561E0409175016F934F9389
:100520005F93F1E0E4E2E40FF11D80818F9399275E
:10053000880FF9E0EEE7E80FF91F85919491F1E05B
:10054000E0E07F910F921F9273E0679F0394E00DAC
:10055000F11D1F900F905081507C852B80839183DB
:100560005F914F916F910895660F08F40000660F38
:1005700008F40000660F08F400000895669566957B
:100580006093120108956695609323010895660FA4
:1005900008F4F9CF660F08F4F1CF660F08F4E4CF42
:1005A000660F08F46FCF660F08F438CF660F08F4B3
:1005B0002BCF660F08F401CF660F08F4F6CE08952E
:1005C0004F93EF93FF9340912301B1E0A4E2A40F76
:1005D000B11D6C935091750145177CF450917401D5
:1005E000451758F04091230176E0F4D097DF6395EA
:1005F000663008F060E0609376014091230127FFA8
:1006000005C04395403528F0442703C04A9547600C
:1006100040E540932301FF91EF914F910895089594
:100620005C9A0FEF0DBF04E00EBFF894A89564B775
:10063000607064BFF8941124222744245524662452
:10064000772480EEA82E80E9B82E80E4D82E87EF9C
:10065000C82ECFEFD1E01A92C115E9F713E08FE36E
:10066000382E88E0282E922CC2E1D1E08A908FE0CB
:1006700088B95C9A88E38AB987E084B98091700070
:10068000887F809370008091B60080628093B6006E
:1006900088278093B2008093B00086E08093B100F9
:1006A000A8958091B6008F71D9F780E7816080931B
:1006B0007000789480916F00887F80936F0080E055
:1006C0008093890082E480938800882780938B0040
:1006D00081E280938A0080E483608093800088E1D7
:1006E0008093810080916E00887F80936E0083E10B
:1006F00087BD8AE088BD83E384BD88E085BD1BDDBE
:1007000061E272E0FAD015D1A8952E7F5091F801E0
:1007100051FF25C033DE603129F430DE246037DF3D
:100720002B7FF2CF613129F429DE246049DF2B7F52
:10073000EBCF6032A1F4E52DF0E0E954FE4F2083C9
:1007400053945320D18253945320C2825394532004
:10075000B48253945320A48253945320DDD056B1D5
:100760005095537029F056B150955370E1F7E3DC82
:1007700025FD18C021FF03C083B7817F03C083B765
:10078000817F866083BF83B7816083BF889583B78D
:100790008E7F83BF86E08093B100A8958091B600DC
:1007A0008F71D9F721FDB0CF5091F80150FDACCF3A
:1007B000ADD0BFD0A9CFA8CFA895FECFA895F8946B
:1007C00060916000686160936000672F60936000D3
:1007D000789408958F934F93661B89E0441F8A9500
:1007E00009F408C0661F671B18F4670F8894F6CFDA
:1007F0000894F4CF4F918F91089566277A5010F0A6
:100800006395FCCF765F089522FD1895FFB68F9310
:10081000EF93FF938091B900803909F44AC0813980
:1008200098F4803709F436C0813738F4882309F406
:100830004FC0803609F054C032C0803809F439C046
:10084000883809F04DC044C0883A91F0893A38F4AC
:10085000883909F43DC0803A09F042C045C0803C67
:1008600089F0883C09F434C0883B09F039C000C0E5
:10087000E42DF0E0E954FE4F80818093BB00439467
:10088000432012C0451461F58091F8018160809386
:10089000F8012AC08091F80184608093F80180916A
:1008A000F80182608093F80185EC8093BC0022609F
:1008B0001FC08091BB0063946320E62DF0E0E958EF
:1008C000FE4F80838091F80181608093F801ECCF26
:1008D0008091B9008093F70180E98093BC0008C043
:1008E0008091B9008093F70185EC8093BC002D7F47
:1008F000FF91EF918F91FFBE18956093BA007093AE
:10090000BD0084E08093BC002D7F0895A89521FD53
:10091000FDCF6091F7010895A89521FDFDCF1092BC
:10092000F80188EF8093F70185EC8093BC0022608A
:100930000895A89521FDFDCF1092F80188EF8093CE
:10094000F70185EC8093BC002D7F0895593D202050
:100950002020202020004D4F4E3D20202020200030
:100960004441593D202020202000484F553D202063
:10097000202020004D494E3D202020202000000056
:100980000000000000000000000000000000000067
:100990000000000000000000000000000000000057
:1009A0000000000000000000000000000000000047
:1009B0000000000000000000000000000000000037
:1009C0001080140015D225D308892A76040020450A
:1009D00030C00F3A0512000801020004080838CDA3
:1009E0001880314631C0118321C321C7281031C777
:1009F00031C30005040808200142020831113545C1
:100A0000318735D0204534D02147210721C51187B2
:100A1000245010C4082700451A8512A530C5310797
:100A200030E5312723C0241010C5080D10AD0A2869
:100A30000A1028482045022030C000280040040049
:100A4000318735D0204534D02147210721C5118772
:100A5000245010C4082700451A8512A530C5310757
:100A600030E5312723C0241010C5080D10AD0A2829
:100A70000A102848224A0410296013013FFF000091
:100A80000000000000000000000000000000000066
:100A90000000000000000000000000000000000056
:100AA0000000000000000000000000000000000046
:100AB0000000000000000000000000000000000036
:100AC0000000000000000000000000000000000026
:100AD0000000000000000000000000000000000016
:100AE00000050014251725D308893768001030C089
:100AF00020450F3A0512080001021000080838CD01
:100B0000000D31462047018721C331C3044831C756
:100B100021C71080081002082102082004C630D620
:100B200011C7245730C0245531C211C230C31187B8
:100B3000245030051388308010AD12A530C511C681
:100B400032C513C620630450308518881A850A28D8
:100B50000428284830C0022020450A002000001048
:100B600011C7245730C0245531C211C230C3118778
:100B7000245030051388308010AD12A530C511C641
:100B800032C513C620630450308518881A850A2898
:0E0B90000428284829600410224A00A63FFFCE
:00000001FF
