:020000020000FC
:1000000098C318951895189518951895189512C0B5
:10001000189511C018951895189518951895BFC082
:1000200099C01895189518951895189518951895BC
:10003000ACC418950895FFB621600A2D0F71039581
:100040000F93E02E0A2D007E0E29A02E0F910E3167
:100050000CF002C0FFBE18950A2D007EE02E0B2D7D
:100060000770EE0C001FEE1C001FEE1C001F039516
:100070000F93AA240695A7940795A7940795A7948C
:100080000770E02E08EFB022BE280F910C3314F356
:1000900008EFB022AA240B2D069506950695039528
:1000A0000F93000F000F000FB02E0F91083190F248
:1000B000BB24AA240C2D007EED2CE6940795029516
:1000C0000F700F930C2D0F710395003211F401E0A6
:1000D00023C00F3161F4E02E0F910F930430B9F378
:1000E0000630A9F3093099F30B3089F30E2D0E3148
:1000F00031F4E02E0F910F93023049F70E2D0D31A0
:1001000019F5E02E0F910F93023011F00E2D1CC047
:100110000E2DF79B19C001E0EF900F930E2D039564
:100120000D3048F0D694D394F79A0D2D037009F44E
:10013000F798DD0C01E0E02ED6940295007F000FC9
:10014000DD1CC02E0F91EF92EF90E02E00EEC0224A
:10015000CE2880CFFFB680FC02C0289801C0289A24
:1001600086941A9551F09A94C1F4DD2319F4C6E3EC
:10017000D1E019E28A90922C10C019E2922C8A9058
:1001800004B50F7C04BD05B3076005BB00916E008C
:10019000046000936E0028985B9AFFBE1895FFB626
:1001A00004B5006304BD00916E000B7F00936E00E8
:1001B0005B98FFBE1895A89556B150955370D9F32A
:1001C000652FA89556B150955370D9F70895D6D399
:1001D000705D605D7F937DD26F917BD2089580E7E3
:1001E0008E7F8093700061E05BD266E059D26CE054
:1001F00057D260E855D2EAECFAE06591662311F037
:1002000068D2FBCF65E84CD26D2D6695F79A462FE4
:10021000437009F4F798605B645667FF04C06C593B
:100220006F9373E10BC064361CF46F9374E106C0E6
:100230006456603009F4F79A6F9375E1C8DF7F91D7
:10024000C6DFB9DF61FD09C06D2D6E7F66956395D0
:10025000660F81E0D822D62ACCCF60E821D2E4ED27
:10026000FAE06591662311F034D2FBCF66E818D22C
:100270006C2D607E7D2D7170660F771F660F771F66
:10028000660F771F7F93A3DF9F9195DF61FD13C0FA
:10029000692F63956D3008F061E077276695779553
:1002A00066957795669577958FE1C822C72A8EEF78
:1002B000D822D62AD2CF60E8F3D1EEEDFAE06591EC
:1002C000662311F006D2FBCF64E8EAD17C2D7F7162
:1002D0007EDF71DF61FD2BC06C2D6F7163959C2DEE
:1002E0007D2D7695979592959F70603228F07C2DA4
:1002F000707E7160C72EDFCF6F3169F49430B9F32F
:100300009630A9F3993099F39B3089F37C2D707E58
:10031000762BC72ED0CF6E3119F4923041F3F6CF41
:100320006D31A1F7923091F7F799E1CFEFCF60E807
:10033000B7D1E8EEFAE06591662311F0CAD1FBCFA0
:1003400065E8AED17B2D787F7695769576957F930F
:100350003EDF7F9130DF61FD0CC07395783108F08E
:1003600070E06B2D6770770F770F770F762BB72EB6
:10037000DECF60E895D1E2EFFAE06591662311F0F7
:10038000A8D1FBCF67E88CD17B2D6A2D7770607E7A
:10039000660F771F661F771F661F771F7F9317DF14
:1003A0007F9109DF61FD15C073957C3308F070E023
:1003B000972F88277B2D6A2D787F67709695879574
:1003C0009795879597958795792B682BB72EA62EAD
:1003D000D0CF61E065D180E7816080937000A895FF
:1003E00056B15095537011F0E6DE089520FFF7CF17
:1003F0002E7F61E855D17B2D787F76957695769521
:10040000E6DE7B2D6A2D7770607E660F771F661F94
:10041000771F661F771FDBDE7A2D7F71770FD7DEA0
:10042000DECF0895671418F0662D6719089560E40B
:10043000660D67190895A89556B15095537029F027
:1004400056B150955370E1F7CADE6714A1F3A89531
:1004500073947320EF93FF93E72DF0E0E556FE4F82
:100460006081FF91EF91671429F450911C025D7F28
:1004700050931C02089580E240E5F1E0E8E48193A6
:100480004A95E9F7206880E080939A018827809355
:1004900047018093980159E0850F8093990180E18D
:1004A0008093020188E08093080184E080930E012C
:1004B00082E08093140181E080931A0180E88093A8
:1004C000210180E48093270180E280932D0180E167
:1004D0008093330140E060E056E08FD06395439510
:1004E0004930D8F30895660F10F4206801C02F77C3
:1004F000660F08F420642F7B0895660F70F4206265
:100500008091810081608093810085B5826085BD86
:1005100081E080936E005C9814C02F7D5C9A80917E
:100520006E00887F80936E0085B5887F85BD809141
:100530006F00887F80936F0080918100887F809317
:100540008100660F10F4206101C02F7E660F10F449
:1005500028600895277F809170008D7F80937000C0
:100560000895660F10F1660F78F480919A018A95CC
:1005700087FD89E080939A01809147018A9587FDE4
:1005800080E580934701089580919A018395893091
:1005900008F080E080939A0180914701839580352F
:1005A00008F08827809347010895660F18F1F1E05D
:1005B000E1E049E04A956081607C838194818F739A
:1005C000862B8083918336964A95A9F740919901AD
:1005D00068E013D0409198014395403508F04427D6
:1005E0004093980159E0450F403508F0405540933D
:1005F0009901089561E0409199016F934F935F9342
:10060000F1E0E8E4E40FF11D80818F939927880FD2
:10061000FAE0ECEFE80FF91F85919491F1E0E0E04A
:10062000562F503009F06A95762F660F660F670FC8
:10063000670F77276C5FE60FF10D7F915523B9F0B7
:1006400060816F737E3221F46064882799270BC024
:100650007C3221F460688827992705C07B3319F420
:10066000606C8827992760835FEFEA5FF50B8083D2
:1006700091835F914F916F910895660F08F4000088
:10068000660F08F40000660F08F4000008956695F0
:1006900066956093360108956695609347010895C5
:1006A000660F08F4F9CF660F08F4F1CF660F08F46F
:1006B000E4CF660F08F455CF660F08F41ECF660F1F
:1006C00008F411CF660F08F4DECE660F08F4D3CE1F
:1006D00008954F93EF93FF9340914701B1E0A8E451
:1006E000A40FB11D6C935091990145177CF4509162
:1006F0009801451758F04091470179E02CD17DDFF2
:100700006395693008F060E060939A014091470179
:1007100027FF05C04395403528F0442703C04A957C
:10072000476040E540934701FF91EF914F91089555
:1007300008955C9A0FEF0DBF04E00EBFF894A895E2
:1007400064B7607064BFF8941124222744245524B0
:10075000662477248BECA82E89EBB82E88E4D82E5B
:100760008BE6C82EF79A4D2D467019F4F798F59838
:10077000F69ACFEFD1E01A92C115E9F716E08FE3B0
:10078000382E88E0282E922CC6E3D1E08A908FE0A4
:1007900088B95C9A88E38AB987E084B9809170004F
:1007A000887F809370008091B60080628093B6004D
:1007B00088278093B2008093B00086E08093B100D8
:1007C00080E7816080937000789480916F00887FCB
:1007D00080936F0080E08093890082E4809388009A
:1007E000882780938B0081E280938A0080E4836075
:1007F0008093800088E18093810080916E00887FE3
:1008000080936E0083E187BD8AE088BD83E384BD69
:1008100088E085BD61E272E02FD14AD1E0DCA89585
:1008200056B15095537029F056B150955370E1F779
:10083000D6DC2E7F50911C0251FF5BC0FCDDF69B85
:100840001EC066FDECCF603011F4362FE8CF633068
:1008500011F43395E4CF623079F0603129F4EBDDA7
:1008600024601EDF2B7FDBCF613109F0D8CFE3DDC1
:1008700024602FDF2B7FD3CFF698F59AD0CF66FF79
:1008800002C0762FCCCF572F7627703421F056FF39
:10089000C6CF752FC4CF65FD15C0F59B05C0362F9B
:1008A0003295307FF598BBCF562F6F70632BF59A3A
:1008B00054FD04C02460F4DE2B7FB1CF246009DF37
:1008C0002B7FADCF6032A9F4452CE52DF0E0E55249
:1008D000FE4F208353945320D18253945320C282DD
:1008E00053945320B48253945320A482539453209E
:1008F000D2D025FD18C021FF03C083B7817F03C07C
:1009000083B7817F866083BF83B7816083BF88950B
:1009100083B78E7F83BF86E08093B100A8958091D6
:10092000B6008F71D9F721FD7ACF50911C0250FD8E
:1009300076CFABD0BDD073CF72CFA895FECFA895A0
:10094000F89460916000686160936000672F609325
:100950006000789408958F934F93661B89E0441F3D
:100960008A9509F408C0661F671B18F4670F8894FE
:10097000F6CF0894F4CF4F918F91089566277A505F
:1009800010F06395FCCF765F0895FFB68F93EF93D9
:10099000FF938091B900803909F44AC0813998F4F5
:1009A000803709F436C0813738F4882309F44FC002
:1009B000803609F054C032C0803809F439C0883814
:1009C00009F04DC044C0883A91F0893A38F488392A
:1009D00009F43DC0803A09F042C045C0803C89F02E
:1009E000883C09F434C0883B09F039C000C0E42DCC
:1009F000F0E0E552FE4F80818093BB00439443209A
:100A000012C0451461F580911C02816080931C0224
:100A10002AC080911C02846080931C0280911C0279
:100A2000826080931C0285EC8093BC0022601FC012
:100A30008091BB0063946320E62DF0E0E556FE4F05
:100A4000808380911C02816080931C02ECCF809196
:100A5000B90080931B0280E98093BC0008C080919C
:100A6000B90080931B0285EC8093BC002D7FFF9121
:100A7000EF918F91FFBE18956093BA007093BD00FF
:100A800084E08093BC002D7F0895A89521FDFDCFC3
:100A900060911B020895A89521FDFDCF10921C02C4
:100AA00088EF80931B0285EC8093BC002260089540
:100AB000A89521FDFDCF10921C0288EF80931B02A8
:100AC00085EC8093BC002D7F0895594541523D200F
:100AD000202020004D4F4E54483D2020200044410E
:100AE000593D202020202000484F55523D202020F5
:100AF00020004D494E5554453D2020000000000087
:100B000000000000000000000000000000000000E5
:100B100000000000000000000000000000000000D5
:100B200000000000000000000000000000000000C5
:100B30000000000000000000000000000000108025
:100B4000140015D225D308892A760400204530C028
:100B50000F3A0512000801020004080838CD188079
:100B6000314631C0118321C321C7281031C731C399
:100B7000000504080820014202083111354531877B
:100B800035D0204534D02147210721C51187245075
:100B900010C4082700451A8512A530C5310730E575
:100BA000312723C0241010C5080D10AD0A280A10E3
:100BB00028482045022030C000280040040031872A
:100BC00035D0204534D02147210721C51187245035
:100BD00010C4082700451A8512A530C5310730E535
:100BE000312723C0241010C5080D10AD0A280A10A3
:100BF0002848224A0410296013013FFF000000002A
:100C000000000000000000000000000000000000E4
:100C100000000000000000000000000000000000D4
:100C200000000000000000000000000000000000C4
:100C300000000000000000000000000000000000B4
:100C400000000000000000000000000000000000A4
:100C5000000000000000000000000000000000058F
:100C60000014251725D308893768001030C02045A7
:100C70000F3A0512080001021000080838CD000DD7
:100C800031462047018721C331C3044831C721C7FA
:100C90001080081002082102082004C630D611C7AF
:100CA000245730C0245531C211C230C3118724509B
:100CB00030051388308010AD12A530C511C632C57D
:100CC00013C620630450308518881A850A28042822
:100CD000284830C0022020450A002000001011C71B
:100CE000245730C0245531C211C230C3118724505B
:100CF00030051388308010AD12A530C511C632C53D
:100D000013C620630450308518881A850A280428E1
:0C0D1000284829600410224A00A63FFF7A
:00000001FF
