:10000000F3C018C019C0189518951895189518952B
:10001000189518951895C8C018951895189518959D
:100020001895189518951895189518951895189568
:100030001895189520611895AFEAB4E0EE2444981D
:100040001BB9000086B193B1449A8F709295907F4E
:10005000892BD82E0000000000004498000000000A
:1000600086B193B1449A8F709295907F892B54E01A
:10007000AE3EB50731F08D9354E0A63BB5070CF4C6
:10008000E80E4B9BEACF80E28D938CE58D939E2DFD
:100090008827990F881F990F881F80638D93882761
:1000A000990F881F990F881F990F881F80638D9360
:1000B0008827990F881F990F881F990F881F8063C1
:1000C0008D9380E28D938CE58D9388279D2D990FDC
:1000D000881F990F881F80638D938827990F881F29
:1000E000990F881F990F881F80638D938827990F18
:1000F000881F990F881F990F881F80638D93882709
:100100008D93206282E00895AFEAB4E0499900003F
:100110005FE154B95FE357B98D91803099F0982F22
:1001200092959F7055B15073952B95B98F7058B1BA
:100130005073852B806288B900004598000049996A
:100140000000EACF55B1507355B958B1507358B942
:10015000459A00004598000050E154B950E357B962
:10016000589800000000589A0895499900005FE1EE
:1001700054B95FE357B9C895802D8030A1F0982F0E
:10018000319692959F7055B15073952B95B98F709C
:1001900058B15073852B806288B9000045980000E3
:1001A00049990000E8CF0895FFB65D98509084000B
:1001B0006090850016BC5818690800000000000017
:1001C00000005C9AB3701092850010928400812C1C
:1001D000912CA0E05D9AB1E0C0E0D7E0D5BB5D987E
:1001E000D1E05C98FFBE189581E38AB915E21BB98E
:1001F000F8948FEF8DBF84E08EBF88278DBBA895C4
:1002000087E0BB27DD27FF2780E387B980E188B936
:1002100080E184B980E285B98FEFB82EC82E8BE0DB
:100220008093690081E08DBBF89486E08093810023
:10023000FEE0E0E4F0938900E0938800812C912CAB
:1002400082E080936F008827182E8FE0382E80E39D
:10025000482EA0E0B1E0C0E0D1E0789440E035E085
:100260000000000078945FEFB516C50629F51BB9AC
:10027000A895000000003BB9000000004A99F0CFAB
:100280004B99F0CFF894D8DEDE1481F456E8D516F9
:1002900009F424C057E8D51609F433C15DE9D51631
:1002A00009F436C15CE9D51609F438C1EEE2F5E08F
:1002B0005CDF2ADFA895D6CF1BB9B51AC50A0000A6
:1002C0003BB9B516C50611F00000CCCF1C9BCACFB8
:1002D0002C9863E978EFB62EC72EC4CFF89480B778
:1002E0001BB915E1000000003BB91BB915E307E09D
:1002F000A0E0B1E0E0E4FEE0C0E0D1E0552700007E
:100300001BB915E1662777271BB93BB915E25FE1F9
:1003100054B95FE357B9000000000000000000007E
:100320001BB90000000000003BB900000000000005
:100330000000000000000000000000003AC01BB9EF
:1003400000000000802F3BB9902F929500278F70FE
:100350009F70806320B6221C221C221C001F1BB928
:100360008D9373953BB99D938991999120B6221CE9
:10037000221C221C001F1BB9567079F495B93BB999
:1003800088B945987A9500000000000020B6221C2C
:10039000221C221C001F1BB90FC03BB92297000072
:1003A000000000000000000020B6221C221C221CBD
:1003B000001F1BB90000000000003BB90000000056
:1003C000000000000000000020B6221C221C221C9D
:1003D000001F1BB90000000000003BB90000000036
:1003E000000000000000000020B6221C221C221C7D
:1003F000001F1BB90000000000003BB90000000016
:10040000000000000000000020B6221C221C221C5C
:10041000001F1BB90000000000003BB900000000F5
:10042000000000000000000020B6221C221C221C3C
:10043000001F1BB9E850F04000003BB961F000001C
:100440000000000059B1562B20B6221C221C221C91
:10045000001F1BB977CF000000000000000020B68D
:10046000221C221C221C001F1BB9FEE0E0E4802F8E
:100470003BB9902F92958F709F70806359B1562B26
:100480008D9373959D9389911BB999911BB99F7019
:100490003BB9567041F495B988B945987A950000F2
:1004A0000000000007C022970000000000000000CC
:1004B000000000001BB9703061F04999FCCF8991B0
:1004C00099919F708F70806395B988B945987A9596
:1004D000F2CF55B1507355B958B1507358B950E176
:1004E00054B950E357B958981BB90000589A000006
:1004F0000000000000005FEFB516C50609F02C9A59
:10050000AFCEF89463E978EFB62EC72EE7CEA8CE2B
:1005100067E271EFB62EC72E2C9AA2CEE2E4F5E088
:1005200024DE10DE9DCE90E086E0F89499CE4572F0
:10053000726F723A2042616420636F6D6D616E6408
:100540002000524541445900425553590000414250
:100550004F525400FFFFFFFFFFFFFFFFFFFFFFFFB2
:10056000FFFFFFFFFFFFFFFFFFFFFFFFFFFFFFFF9B
:10057000FFFFFFFFFFFFFFFFFFFFFFFFFFFFFFFF8B
:10058000FFFFFFFFFFFFFFFFFFFFFFFFFFFFFFFF7B
:10059000FFFFFFFFFFFFFFFFFFFFFFFFFFFFFFFF6B
:00000001FF
